:100000000A128A11E22F00308A000408840A82074B
:100010000034483465346E34723469347134753464
:04002000653400340F
:100A1A007E088A007F0882000A128A110D250A12AE
:100A2A008A118000840A04087D0603190034FF0A2B
:100A3A000319FE0A112D0734003400340834003437
:100A4A0000340734003402340334043405340E34D9
:100A5A0011340E3404341F3404340A341034740349
:100A6A007504031D392D3A2D4D2D0130F600720AF9
:100A7A00402D0310F60DFF3E031D3E2D7608FF00A4
:100A8A00700884008317711C83137F088004602D0B
:100A9A000130F600720A532D0310F60DFF3E031DB6
:100AAA00512D7608FF3AFF00700884008317711CE5
:100ABA0083137F088005080083120313C5004503CA
:100ACA00031D682D692D752D0030FB00FC004308BD
:100ADA00803EFD000A128A113D260A128A11802DD3
:100AEA000030FB00FC004308C03EFD000A128A11D8
:100AFA003D260A128A110130FB000030FC008312E5
:100B0A0003134408FD000A128A113D260A128A11AB
:100B1A000800831203134908F0004A08F1003D084F
:100B2A00F3003C08F2000130F4000030F5000A122C
:100B3A008A1134250A128A110730F8007D30F7002D
:100B4A00F70BA52DF80BA52D831203134908F00006
:100B5A004A08F1003D08F3003C08F2000030F400B6
:100B6A00F5000A128A1134250A128A11C730F700D1
:100B7A00BE2DF70BBD2DC12DC22D08000030FB0084
:100B8A00FC004030FD000A128A113D260A128A1121
:100B9A0083120313C501C6010130FB000030FC00BB
:100BAA008312031345084307C400440884008313CF
:100BBA000008FD000A128A113D260A128A11013024
:100BCA0083120313C5070318C60A0030C60746086E
:100BDA00803AFF0080307F02031DF52D0830450260
:100BEA00031CF82DF92DD12D080083160313870154
:100BFA0083120313870183160313880183120313D5
:100C0A00880120300A128A113B270A128A110330FE
:100C1A0083120313C3000130C40002300A128A117E
:100C2A0082260A128A112C3083120313C300003061
:100C3A000A128A11C3250A128A1102308312031377
:100C4A00C300C40101300A128A1161250A128A11ED
:100C5A00043083120313C3005830C40001300A124F
:100C6A008A1161250A128A11392E0A128A1100285C
:100C7A00831203134B08F0004C08F1003F08F300FD
:100C8A003E08F20001307B05F40000307C05F500D7
:100C9A000A128A1134250A128A117D088312031353
:100CAA00C00004300310C00CFF3E031D572E40083D
:100CBA00C100C2014108F7004208F8000A128A116D
:100CCA00C8260A128A110A128A118E250A128A1154
:100CDA007D080F3983120313C000C1014008F700D1
:100CEA004108F8000A128A11C8260A128A110A1241
:100CFA008A118E250A128A11080083120313C5006D
:100D0A004503031D892E8A2E962E0030FB00FC0017
:100D1A004308803EFD000A128A113D260A128A11F2
:100D2A00B92E0030FB00FC004308C03EFD000A1249
:100D3A008A113D260A128A11B92E0130FB000030B1
:100D4A00FC00440884000A128A1103200A128A113C
:100D5A00FD000A128A113D260A128A110130FF008B
:100D6A007F0883120313C407831203134408840001
:100D7A000A128A1103200A128A11003A031DC62E8A
:100D8A00C72EA22E0800831203134708F000480852
:100D9A00F1003B08F3003A08F20001307705F4004D
:100DAA0000307805F5000A128A1134250A128A11D0
:100DBA00831203134708F0004808F1003908F300CA
:100DCA003808F2007808FA007708F9007A0DFA0C68
:100DDA00F90C01307905F40000307A05F5000A12A1
:100DEA008A1134250A128A11831203134708F00064
:100DFA004808F1003708F3003608F2007808FA00CC
:100E0A007708F9007A0DFA0CF90C7A0DFA0CF90C3C
:100E1A0001307905F40000307A05F5000A128A11CA
:100E2A0034250A128A11831203134708F00048086E
:100E3A00F1003508F3003408F2007808FA00770860
:100E4A00F9007A0DFA0CF90C7A0DFA0CF90C7A0DF4
:100E5A00FA0CF90C01307905F40000307A05F50036
:100E6A000A128A1134250A128A11080083120313FE
:100E7A00C5004508840083130008CB00840A0008D3
:100E8A008403CC004508033E84000008C900840A94
:100E9A0000088403CA004508063E84000008C7000B
:100EAA00840A00088403C8004508023E840000083A
:100EBA00C300C4014308BE004408BF004508053EFC
:100ECA0084000008C300C4014308BC004408BD00F4
:100EDA004508083E84000008C300C4014308BA005C
:100EEA004408BB004508093E84000008C300C40149
:100EFA004308B8004408B90045080A3E84000008BF
:100F0A00C300C4014308B6004408B70045080B3EB5
:100F1A0084000008C300C4014308B4004408B500B3
:100F2A00413083120313C400ED30C300C30B9B2F5F
:100F3A00C40B9B2FA02F0230F7000030F8000A12D2
:100F4A008A11C8260A128A110A128A118E250A12D1
:100F5A008A110030FB00FC002830FD000A128A11B9
:100F6A003D260A128A110030FB00FC000C30FD00FD
:100F7A000A128A113D260A128A110030FB00FC006F
:100F8A000630FD000A128A113D260A128A11003023
:100F9A00FB00FC00FD01FD0A0A128A113D260A1215
:100FAA008A11073083120313C4007C30C300C30BB9
:100FBA00DC2FC40BDC2F0000080083133430FD0043
:100FCA000530FE002030FF00203084000A128A110A
:100FDA0011250A128A11B401B501B601B701B80187
:100FEA00B901BA01BB01BC01BD01BE01BF01830148
:060FFA000A128A11FA2D13
:08400000FF3FFF3FFF3FFF3FC0
:04400E00F43FFF3F3D
:00000001FF
